{
  "address": "0x9fE46736679d2D9a65F0992F2272dE9f3c7fa6e0",
  "abi": [
    {
      "inputs": [
        {
          "internalType": "uint256",
          "name": "_minUsd",
          "type": "uint256"
        },
        {
          "internalType": "address",
          "name": "_priceFeed",
          "type": "address"
        }
      ],
      "stateMutability": "nonpayable",
      "type": "constructor"
    },
    {
      "inputs": [],
      "name": "NotOwner",
      "type": "error"
    },
    {
      "anonymous": false,
      "inputs": [
        {
          "indexed": false,
          "internalType": "uint256",
          "name": "amount",
          "type": "uint256"
        }
      ],
      "name": "Fund",
      "type": "event"
    },
    {
      "stateMutability": "payable",
      "type": "fallback"
    },
    {
      "inputs": [
        {
          "internalType": "address",
          "name": "_funder",
          "type": "address"
        }
      ],
      "name": "balanceOf",
      "outputs": [
        {
          "internalType": "uint256",
          "name": "amount",
          "type": "uint256"
        }
      ],
      "stateMutability": "view",
      "type": "function"
    },
    {
      "inputs": [],
      "name": "fund",
      "outputs": [],
      "stateMutability": "payable",
      "type": "function"
    },
    {
      "inputs": [],
      "name": "getLatestData",
      "outputs": [
        {
          "internalType": "int256",
          "name": "",
          "type": "int256"
        }
      ],
      "stateMutability": "view",
      "type": "function"
    },
    {
      "inputs": [],
      "name": "minUsd",
      "outputs": [
        {
          "internalType": "uint256",
          "name": "",
          "type": "uint256"
        }
      ],
      "stateMutability": "view",
      "type": "function"
    },
    {
      "inputs": [],
      "name": "owner",
      "outputs": [
        {
          "internalType": "address",
          "name": "",
          "type": "address"
        }
      ],
      "stateMutability": "view",
      "type": "function"
    },
    {
      "inputs": [],
      "name": "priceFeed",
      "outputs": [
        {
          "internalType": "contract AggregatorV3Interface",
          "name": "",
          "type": "address"
        }
      ],
      "stateMutability": "view",
      "type": "function"
    },
    {
      "inputs": [],
      "name": "withdraw",
      "outputs": [],
      "stateMutability": "nonpayable",
      "type": "function"
    },
    {
      "stateMutability": "payable",
      "type": "receive"
    }
  ],
  "transactionHash": "0x32db87c953f526ad169b5d005f6927d49709dacc8cc0c721c76b998b1af46451",
  "args": [
    10,
    "0x5FbDB2315678afecb367f032d93F642f64180aa3"
  ],
  "numDeployments": 1,
  "solcInputHash": "c9690c3ea7d0523c718a8f239a5f692f",
  "bytecode": "0x60c06040523480156200001157600080fd5b50604051620014d9380380620014d983398181016040528101906200003791906200025f565b62000069604051806060016040528060288152602001620014b160289139838333620000ed60201b6200080a1760201c565b3373ffffffffffffffffffffffffffffffffffffffff1660808173ffffffffffffffffffffffffffffffffffffffff16815250508160a08181525050806000806101000a81548173ffffffffffffffffffffffffffffffffffffffff021916908373ffffffffffffffffffffffffffffffffffffffff1602179055505050620003b6565b62000193848484846040516024016200010a949392919062000362565b6040516020818303038152906040527f5ea2b7ae000000000000000000000000000000000000000000000000000000007bffffffffffffffffffffffffffffffffffffffffffffffffffffffff19166020820180517bffffffffffffffffffffffffffffffffffffffffffffffffffffffff83818316178352505050506200019960201b60201c565b50505050565b60006a636f6e736f6c652e6c6f679050600080835160208501845afa505050565b600080fd5b6000819050919050565b620001d481620001bf565b8114620001e057600080fd5b50565b600081519050620001f481620001c9565b92915050565b600073ffffffffffffffffffffffffffffffffffffffff82169050919050565b60006200022782620001fa565b9050919050565b62000239816200021a565b81146200024557600080fd5b50565b60008151905062000259816200022e565b92915050565b60008060408385031215620002795762000278620001ba565b5b60006200028985828601620001e3565b92505060206200029c8582860162000248565b9150509250929050565b600081519050919050565b600082825260208201905092915050565b60005b83811015620002e2578082015181840152602081019050620002c5565b60008484015250505050565b6000601f19601f8301169050919050565b60006200030c82620002a6565b620003188185620002b1565b93506200032a818560208601620002c2565b6200033581620002ee565b840191505092915050565b6200034b81620001bf565b82525050565b6200035c816200021a565b82525050565b600060808201905081810360008301526200037e8187620002ff565b90506200038f602083018662000340565b6200039e604083018562000351565b620003ad606083018462000351565b95945050505050565b60805160a0516110c0620003f1600039600081816102fb01526106b801526000818161045d015281816105eb015261074901526110c06000f3fe6080604052600436106100745760003560e01c8063741bef1a1161004e578063741bef1a146101885780638da5cb5b146101b3578063ab757d61146101de578063b60d428814610209576100c1565b80633ccfd60b1461010957806351b80e411461012057806370a082311461014b576100c1565b366100c1576100b76040518060400160405280601181526020017f7265636569766520747269676765726564000000000000000000000000000000815250610213565b6100bf6102ac565b005b6100ff6040518060400160405280601281526020017f66616c6c6261636b207472696767657265640000000000000000000000000000815250610213565b6101076102ac565b005b34801561011557600080fd5b5061011e61045b565b005b34801561012c57600080fd5b506101356106b6565b604051610142919061098d565b60405180910390f35b34801561015757600080fd5b50610172600480360381019061016d9190610a0b565b6106da565b60405161017f919061098d565b60405180910390f35b34801561019457600080fd5b5061019d610723565b6040516101aa9190610a97565b60405180910390f35b3480156101bf57600080fd5b506101c8610747565b6040516101d59190610ac1565b60405180910390f35b3480156101ea57600080fd5b506101f361076b565b6040516102009190610af5565b60405180910390f35b6102116102ac565b005b6102a9816040516024016102279190610ba0565b6040516020818303038152906040527f41304fac000000000000000000000000000000000000000000000000000000007bffffffffffffffffffffffffffffffffffffffffffffffffffffffff19166020820180517bffffffffffffffffffffffffffffffffffffffffffffffffffffffff83818316178352505050506108ac565b50565b600034905060006402540be4006102c161076b565b6102cb9190610bf1565b90506000670de0b6b3a764000082846102e49190610c69565b6102ee9190610cda565b9050670de0b6b3a76400007f00000000000000000000000000000000000000000000000000000000000000006103249190610c69565b811015610366576040517f08c379a000000000000000000000000000000000000000000000000000000000815260040161035d90610d57565b60405180910390fd5b34600160003373ffffffffffffffffffffffffffffffffffffffff1673ffffffffffffffffffffffffffffffffffffffff16815260200190815260200160002060008282546103b59190610d77565b925050819055506002339080600181540180825580915050600190039060005260206000200160009091909190916101000a81548173ffffffffffffffffffffffffffffffffffffffff021916908373ffffffffffffffffffffffffffffffffffffffff1602179055507f27b2dc149fd3048bc27eadaaf660801a04305c72845da74066a17b72d6c5bb663460405161044e919061098d565b60405180910390a1505050565b7f000000000000000000000000000000000000000000000000000000000000000073ffffffffffffffffffffffffffffffffffffffff163373ffffffffffffffffffffffffffffffffffffffff16146104e0576040517f30cd747100000000000000000000000000000000000000000000000000000000815260040160405180910390fd5b60005b600280549050811015610586576000600160006002848154811061050a57610509610dab565b5b9060005260206000200160009054906101000a900473ffffffffffffffffffffffffffffffffffffffff1673ffffffffffffffffffffffffffffffffffffffff1673ffffffffffffffffffffffffffffffffffffffff16815260200190815260200160002081905550808061057e90610dda565b9150506104e3565b50600067ffffffffffffffff8111156105a2576105a1610e22565b5b6040519080825280602002602001820160405280156105d05781602001602082028036833780820191505090505b50600290805190602001906105e69291906108cd565b5060007f000000000000000000000000000000000000000000000000000000000000000073ffffffffffffffffffffffffffffffffffffffff164760405161062d90610e82565b60006040518083038185875af1925050503d806000811461066a576040519150601f19603f3d011682016040523d82523d6000602084013e61066f565b606091505b50509050806106b3576040517f08c379a00000000000000000000000000000000000000000000000000000000081526004016106aa90610f09565b60405180910390fd5b50565b7f000000000000000000000000000000000000000000000000000000000000000081565b6000600160008373ffffffffffffffffffffffffffffffffffffffff1673ffffffffffffffffffffffffffffffffffffffff168152602001908152602001600020549050919050565b60008054906101000a900473ffffffffffffffffffffffffffffffffffffffff1681565b7f000000000000000000000000000000000000000000000000000000000000000081565b60008060008054906101000a900473ffffffffffffffffffffffffffffffffffffffff1673ffffffffffffffffffffffffffffffffffffffff1663feaf968c6040518163ffffffff1660e01b815260040160a060405180830381865afa1580156107d9573d6000803e3d6000fd5b505050506040513d601f19601f820116820180604052508101906107fd9190610fc3565b5050509150508091505090565b6108a684848484604051602401610824949392919061103e565b6040516020818303038152906040527f5ea2b7ae000000000000000000000000000000000000000000000000000000007bffffffffffffffffffffffffffffffffffffffffffffffffffffffff19166020820180517bffffffffffffffffffffffffffffffffffffffffffffffffffffffff83818316178352505050506108ac565b50505050565b60006a636f6e736f6c652e6c6f679050600080835160208501845afa505050565b828054828255906000526020600020908101928215610946579160200282015b828111156109455782518260006101000a81548173ffffffffffffffffffffffffffffffffffffffff021916908373ffffffffffffffffffffffffffffffffffffffff160217905550916020019190600101906108ed565b5b5090506109539190610957565b5090565b5b80821115610970576000816000905550600101610958565b5090565b6000819050919050565b61098781610974565b82525050565b60006020820190506109a2600083018461097e565b92915050565b600080fd5b600073ffffffffffffffffffffffffffffffffffffffff82169050919050565b60006109d8826109ad565b9050919050565b6109e8816109cd565b81146109f357600080fd5b50565b600081359050610a05816109df565b92915050565b600060208284031215610a2157610a206109a8565b5b6000610a2f848285016109f6565b91505092915050565b6000819050919050565b6000610a5d610a58610a53846109ad565b610a38565b6109ad565b9050919050565b6000610a6f82610a42565b9050919050565b6000610a8182610a64565b9050919050565b610a9181610a76565b82525050565b6000602082019050610aac6000830184610a88565b92915050565b610abb816109cd565b82525050565b6000602082019050610ad66000830184610ab2565b92915050565b6000819050919050565b610aef81610adc565b82525050565b6000602082019050610b0a6000830184610ae6565b92915050565b600081519050919050565b600082825260208201905092915050565b60005b83811015610b4a578082015181840152602081019050610b2f565b60008484015250505050565b6000601f19601f8301169050919050565b6000610b7282610b10565b610b7c8185610b1b565b9350610b8c818560208601610b2c565b610b9581610b56565b840191505092915050565b60006020820190508181036000830152610bba8184610b67565b905092915050565b7f4e487b7100000000000000000000000000000000000000000000000000000000600052601160045260246000fd5b6000610bfc82610adc565b9150610c0783610adc565b9250828202610c1581610adc565b91507f80000000000000000000000000000000000000000000000000000000000000008414600084121615610c4d57610c4c610bc2565b5b8282058414831517610c6257610c61610bc2565b5b5092915050565b6000610c7482610974565b9150610c7f83610974565b9250828202610c8d81610974565b91508282048414831517610ca457610ca3610bc2565b5b5092915050565b7f4e487b7100000000000000000000000000000000000000000000000000000000600052601260045260246000fd5b6000610ce582610974565b9150610cf083610974565b925082610d0057610cff610cab565b5b828204905092915050565b7f4d757374206265203e3d206d696e557364000000000000000000000000000000600082015250565b6000610d41601183610b1b565b9150610d4c82610d0b565b602082019050919050565b60006020820190508181036000830152610d7081610d34565b9050919050565b6000610d8282610974565b9150610d8d83610974565b9250828201905080821115610da557610da4610bc2565b5b92915050565b7f4e487b7100000000000000000000000000000000000000000000000000000000600052603260045260246000fd5b6000610de582610974565b91507fffffffffffffffffffffffffffffffffffffffffffffffffffffffffffffffff8203610e1757610e16610bc2565b5b600182019050919050565b7f4e487b7100000000000000000000000000000000000000000000000000000000600052604160045260246000fd5b600081905092915050565b50565b6000610e6c600083610e51565b9150610e7782610e5c565b600082019050919050565b6000610e8d82610e5f565b9150819050919050565b7f4661696c656420746f2073656e64207769746864726177616c2062616c616e6360008201527f6500000000000000000000000000000000000000000000000000000000000000602082015250565b6000610ef3602183610b1b565b9150610efe82610e97565b604082019050919050565b60006020820190508181036000830152610f2281610ee6565b9050919050565b600069ffffffffffffffffffff82169050919050565b610f4881610f29565b8114610f5357600080fd5b50565b600081519050610f6581610f3f565b92915050565b610f7481610adc565b8114610f7f57600080fd5b50565b600081519050610f9181610f6b565b92915050565b610fa081610974565b8114610fab57600080fd5b50565b600081519050610fbd81610f97565b92915050565b600080600080600060a08688031215610fdf57610fde6109a8565b5b6000610fed88828901610f56565b9550506020610ffe88828901610f82565b945050604061100f88828901610fae565b935050606061102088828901610fae565b925050608061103188828901610f56565b9150509295509295909350565b600060808201905081810360008301526110588187610b67565b9050611067602083018661097e565b6110746040830185610ab2565b6110816060830184610ab2565b9594505050505056fea26469706673582212202eb2128b256f8db5d748d62c022d51afb8226fbfcb2fb14ea743eae9b0e96cf764736f6c6343000812003346756e644d65206d696e5573642025732c207072696365466565642025732c206f776e6572202573",
  "devdoc": {
    "details": "Fund a project with minUsd in terms of wei. Only owner can widthdraw",
    "kind": "dev",
    "methods": {},
    "title": "FundMeChainlink",
    "version": 1
  },
  "userdoc": {
    "errors": {
      "NotOwner()": [
        {
          "notice": "Custom error"
        }
      ]
    },
    "kind": "user",
    "methods": {
      "minUsd()": {
        "notice": "Minimal contribution"
      },
      "owner()": {
        "notice": "Contract owner/deployer"
      }
    },
    "version": 1
  },
  "storageLayout": {
    "storage": [
      {
        "astId": 56,
        "contract": "contracts/fundme/FundmeChainlink.sol:FundMeChainlink",
        "label": "priceFeed",
        "offset": 0,
        "slot": "0",
        "type": "t_contract(AggregatorV3Interface)45"
      },
      {
        "astId": 67,
        "contract": "contracts/fundme/FundmeChainlink.sol:FundMeChainlink",
        "label": "fundings",
        "offset": 0,
        "slot": "1",
        "type": "t_mapping(t_address,t_uint256)"
      },
      {
        "astId": 71,
        "contract": "contracts/fundme/FundmeChainlink.sol:FundMeChainlink",
        "label": "funders",
        "offset": 0,
        "slot": "2",
        "type": "t_array(t_address)dyn_storage"
      }
    ],
    "types": {
      "t_address": {
        "encoding": "inplace",
        "label": "address",
        "numberOfBytes": "20"
      },
      "t_array(t_address)dyn_storage": {
        "base": "t_address",
        "encoding": "dynamic_array",
        "label": "address[]",
        "numberOfBytes": "32"
      },
      "t_contract(AggregatorV3Interface)45": {
        "encoding": "inplace",
        "label": "contract AggregatorV3Interface",
        "numberOfBytes": "20"
      },
      "t_mapping(t_address,t_uint256)": {
        "encoding": "mapping",
        "key": "t_address",
        "label": "mapping(address => uint256)",
        "numberOfBytes": "32",
        "value": "t_uint256"
      },
      "t_uint256": {
        "encoding": "inplace",
        "label": "uint256",
        "numberOfBytes": "32"
      }
    }
  }
}